{
  "contractName": "AccordFund",
  "abi": [
    {
      "constant": true,
      "inputs": [],
      "name": "hash",
      "outputs": [
        {
          "name": "",
          "type": "bytes8"
        }
      ],
      "payable": false,
      "stateMutability": "view",
      "type": "function"
    },
    {
      "constant": true,
      "inputs": [],
      "name": "cAddr",
      "outputs": [
        {
          "name": "",
          "type": "address"
        }
      ],
      "payable": false,
      "stateMutability": "view",
      "type": "function"
    },
    {
      "constant": true,
      "inputs": [
        {
          "name": "",
          "type": "address"
        }
      ],
      "name": "balances",
      "outputs": [
        {
          "name": "",
          "type": "uint256"
        }
      ],
      "payable": false,
      "stateMutability": "view",
      "type": "function"
    },
    {
      "constant": true,
      "inputs": [
        {
          "name": "",
          "type": "uint256"
        }
      ],
      "name": "stateHash",
      "outputs": [
        {
          "name": "",
          "type": "bytes8"
        }
      ],
      "payable": false,
      "stateMutability": "view",
      "type": "function"
    },
    {
      "constant": true,
      "inputs": [],
      "name": "payout",
      "outputs": [
        {
          "name": "",
          "type": "uint256"
        }
      ],
      "payable": false,
      "stateMutability": "view",
      "type": "function"
    },
    {
      "constant": true,
      "inputs": [],
      "name": "lastAddr",
      "outputs": [
        {
          "name": "",
          "type": "address"
        }
      ],
      "payable": false,
      "stateMutability": "view",
      "type": "function"
    },
    {
      "constant": true,
      "inputs": [],
      "name": "id",
      "outputs": [
        {
          "name": "",
          "type": "string"
        }
      ],
      "payable": false,
      "stateMutability": "view",
      "type": "function"
    },
    {
      "constant": true,
      "inputs": [],
      "name": "deposit",
      "outputs": [
        {
          "name": "",
          "type": "uint256"
        }
      ],
      "payable": false,
      "stateMutability": "view",
      "type": "function"
    },
    {
      "constant": true,
      "inputs": [],
      "name": "deployed",
      "outputs": [
        {
          "name": "",
          "type": "bool"
        }
      ],
      "payable": false,
      "stateMutability": "view",
      "type": "function"
    },
    {
      "constant": true,
      "inputs": [],
      "name": "iAddr",
      "outputs": [
        {
          "name": "",
          "type": "address"
        }
      ],
      "payable": false,
      "stateMutability": "view",
      "type": "function"
    },
    {
      "inputs": [
        {
          "name": "_link",
          "type": "address"
        },
        {
          "name": "_iAddr",
          "type": "address"
        },
        {
          "name": "_cAddr",
          "type": "address"
        },
        {
          "name": "_payout",
          "type": "uint256"
        },
        {
          "name": "_deposit",
          "type": "uint256"
        },
        {
          "name": "_start",
          "type": "string"
        },
        {
          "name": "_end",
          "type": "string"
        },
        {
          "name": "_id",
          "type": "string"
        }
      ],
      "payable": false,
      "stateMutability": "nonpayable",
      "type": "constructor"
    },
    {
      "anonymous": false,
      "inputs": [
        {
          "indexed": true,
          "name": "id",
          "type": "bytes32"
        }
      ],
      "name": "ChainlinkRequested",
      "type": "event"
    },
    {
      "anonymous": false,
      "inputs": [
        {
          "indexed": true,
          "name": "id",
          "type": "bytes32"
        }
      ],
      "name": "ChainlinkFulfilled",
      "type": "event"
    },
    {
      "anonymous": false,
      "inputs": [
        {
          "indexed": true,
          "name": "id",
          "type": "bytes32"
        }
      ],
      "name": "ChainlinkCancelled",
      "type": "event"
    },
    {
      "constant": false,
      "inputs": [],
      "name": "devAddCorrectFunds",
      "outputs": [],
      "payable": false,
      "stateMutability": "nonpayable",
      "type": "function"
    },
    {
      "constant": true,
      "inputs": [],
      "name": "getChainlinkToken",
      "outputs": [
        {
          "name": "",
          "type": "address"
        }
      ],
      "payable": false,
      "stateMutability": "view",
      "type": "function"
    },
    {
      "constant": false,
      "inputs": [],
      "name": "depositFunds",
      "outputs": [],
      "payable": true,
      "stateMutability": "payable",
      "type": "function"
    },
    {
      "constant": false,
      "inputs": [
        {
          "name": "_oracle",
          "type": "address"
        },
        {
          "name": "_jobId",
          "type": "string"
        },
        {
          "name": "_payment",
          "type": "uint256"
        }
      ],
      "name": "deployAccordContract",
      "outputs": [
        {
          "name": "requestId",
          "type": "bytes32"
        }
      ],
      "payable": false,
      "stateMutability": "nonpayable",
      "type": "function"
    },
    {
      "constant": false,
      "inputs": [
        {
          "name": "_requestId",
          "type": "bytes32"
        },
        {
          "name": "_data",
          "type": "bytes32"
        }
      ],
      "name": "fulfillDeployment",
      "outputs": [],
      "payable": false,
      "stateMutability": "nonpayable",
      "type": "function"
    },
    {
      "constant": false,
      "inputs": [
        {
          "name": "_oracle",
          "type": "address"
        },
        {
          "name": "_jobId",
          "type": "string"
        },
        {
          "name": "_payment",
          "type": "uint256"
        }
      ],
      "name": "triggerAccordContract",
      "outputs": [
        {
          "name": "requestId",
          "type": "bytes32"
        }
      ],
      "payable": false,
      "stateMutability": "nonpayable",
      "type": "function"
    },
    {
      "constant": false,
      "inputs": [
        {
          "name": "_requestId",
          "type": "bytes32"
        },
        {
          "name": "_payoutAddress",
          "type": "bytes32"
        }
      ],
      "name": "fulfillTrigger",
      "outputs": [],
      "payable": false,
      "stateMutability": "nonpayable",
      "type": "function"
    },
    {
      "constant": false,
      "inputs": [],
      "name": "withdrawLink",
      "outputs": [],
      "payable": false,
      "stateMutability": "nonpayable",
      "type": "function"
    },
    {
      "constant": false,
      "inputs": [
        {
          "name": "_requestId",
          "type": "bytes32"
        },
        {
          "name": "_payment",
          "type": "uint256"
        },
        {
          "name": "_callbackFunctionId",
          "type": "bytes4"
        },
        {
          "name": "_expiration",
          "type": "uint256"
        }
      ],
      "name": "cancelRequest",
      "outputs": [],
      "payable": false,
      "stateMutability": "nonpayable",
      "type": "function"
    },
    {
      "constant": true,
      "inputs": [
        {
          "name": "data",
          "type": "bytes"
        }
      ],
      "name": "toString",
      "outputs": [
        {
          "name": "",
          "type": "string"
        }
      ],
      "payable": false,
      "stateMutability": "pure",
      "type": "function"
    }
  ],
  "bytecode": "0x608060405260016004553480156200001657600080fd5b506040516200312c3803806200312c83398181016040526101008110156200003d57600080fd5b81019080805190602001909291908051906020019092919080519060200190929190805190602001909291908051906020019092919080516401000000008111156200008857600080fd5b828101905060208101848111156200009f57600080fd5b8151856001820283011164010000000082111715620000bd57600080fd5b50509291906020018051640100000000811115620000da57600080fd5b82810190506020810184811115620000f157600080fd5b81518560018202830111640100000000821117156200010f57600080fd5b505092919060200180516401000000008111156200012c57600080fd5b828101905060208101848111156200014357600080fd5b81518560018202830111640100000000821117156200016157600080fd5b5050929190505050600073ffffffffffffffffffffffffffffffffffffffff168873ffffffffffffffffffffffffffffffffffffffff161415620001b557620001af6200030d60201b60201c565b620001c7565b620001c688620003b760201b60201c565b5b86600660006101000a81548173ffffffffffffffffffffffffffffffffffffffff021916908373ffffffffffffffffffffffffffffffffffffffff16021790555085600760006101000a81548173ffffffffffffffffffffffffffffffffffffffff021916908373ffffffffffffffffffffffffffffffffffffffff160217905550846008819055508360098190555082600a90805190602001906200026f929190620003fb565b5081600b908051906020019062000288929190620003fb565b5080600c9080519060200190620002a1929190620003fb565b506000600d60006101000a81548160ff0219169083151502179055506000600d60016101000a81548173ffffffffffffffffffffffffffffffffffffffff021916908373ffffffffffffffffffffffffffffffffffffffff1602179055505050505050505050620004aa565b620003b573c89bd4e1632d3a43cb03aaad5262cbe4038bc57173ffffffffffffffffffffffffffffffffffffffff166338cc48316040518163ffffffff1660e01b815260040160206040518083038186803b1580156200036c57600080fd5b505afa15801562000381573d6000803e3d6000fd5b505050506040513d60208110156200039857600080fd5b8101908080519060200190929190505050620003b760201b60201c565b565b80600260006101000a81548173ffffffffffffffffffffffffffffffffffffffff021916908373ffffffffffffffffffffffffffffffffffffffff16021790555050565b828054600181600116156101000203166002900490600052602060002090601f016020900481019282601f106200043e57805160ff19168380011785556200046f565b828001600101855582156200046f579182015b828111156200046e57825182559160200191906001019062000451565b5b5090506200047e919062000482565b5090565b620004a791905b80821115620004a357600081600090555060010162000489565b5090565b90565b612c7280620004ba6000396000f3fe60806040526004361061011f5760003560e01c806371aad10d116100a0578063d0e30db011610064578063d0e30db014610834578063e2c41dbc1461085f578063ec65d0f814610869578063f905c15a146108e1578063fbd2c4df146109105761011f565b806371aad10d146105b05780638dc654a2146106f15780639a40ae5c14610708578063aec892d81461074d578063af640d0f146107a45761011f565b806347b8c7f6116100e757806347b8c7f61461039e5780634ff33816146103e35780635c44cab71461046857806362ce30ba1461056e57806363bd1d4a146105855761011f565b80630113358f1461012457806309bd5a601461022a5780630b6c4dcc1461028b578063165d35e1146102e257806327e235e314610339575b600080fd5b34801561013057600080fd5b506102146004803603606081101561014757600080fd5b81019080803573ffffffffffffffffffffffffffffffffffffffff1690602001909291908035906020019064010000000081111561018457600080fd5b82018360208201111561019657600080fd5b803590602001918460018302840111640100000000831117156101b857600080fd5b91908080601f016020809104026020016040519081016040528093929190818152602001838380828437600081840152601f19601f82011690508083019250505050505050919291929080359060200190929190505050610967565b6040518082815260200191505060405180910390f35b34801561023657600080fd5b5061023f610d6f565b604051808277ffffffffffffffffffffffffffffffffffffffffffffffff191677ffffffffffffffffffffffffffffffffffffffffffffffff1916815260200191505060405180910390f35b34801561029757600080fd5b506102a0610d82565b604051808273ffffffffffffffffffffffffffffffffffffffff1673ffffffffffffffffffffffffffffffffffffffff16815260200191505060405180910390f35b3480156102ee57600080fd5b506102f7610da8565b604051808273ffffffffffffffffffffffffffffffffffffffff1673ffffffffffffffffffffffffffffffffffffffff16815260200191505060405180910390f35b34801561034557600080fd5b506103886004803603602081101561035c57600080fd5b81019080803573ffffffffffffffffffffffffffffffffffffffff169060200190929190505050610db7565b6040518082815260200191505060405180910390f35b3480156103aa57600080fd5b506103e1600480360360408110156103c157600080fd5b810190808035906020019092919080359060200190929190505050610dcf565b005b3480156103ef57600080fd5b5061041c6004803603602081101561040657600080fd5b8101908080359060200190929190505050610fa4565b604051808277ffffffffffffffffffffffffffffffffffffffffffffffff191677ffffffffffffffffffffffffffffffffffffffffffffffff1916815260200191505060405180910390f35b34801561047457600080fd5b506105586004803603606081101561048b57600080fd5b81019080803573ffffffffffffffffffffffffffffffffffffffff169060200190929190803590602001906401000000008111156104c857600080fd5b8201836020820111156104da57600080fd5b803590602001918460018302840111640100000000831117156104fc57600080fd5b91908080601f016020809104026020016040519081016040528093929190818152602001838380828437600081840152601f19601f82011690508083019250505050505050919291929080359060200190929190505050610fd8565b6040518082815260200191505060405180910390f35b34801561057a57600080fd5b50610583611307565b005b34801561059157600080fd5b5061059a6113d9565b6040518082815260200191505060405180910390f35b3480156105bc57600080fd5b50610676600480360360208110156105d357600080fd5b81019080803590602001906401000000008111156105f057600080fd5b82018360208201111561060257600080fd5b8035906020019184600183028401116401000000008311171561062457600080fd5b91908080601f016020809104026020016040519081016040528093929190818152602001838380828437600081840152601f19601f8201169050808301925050505050505091929192905050506113df565b6040518080602001828103825283818151815260200191508051906020019080838360005b838110156106b657808201518184015260208101905061069b565b50505050905090810190601f1680156106e35780820380516001836020036101000a031916815260200191505b509250505060405180910390f35b3480156106fd57600080fd5b5061070661164e565b005b34801561071457600080fd5b5061074b6004803603604081101561072b57600080fd5b810190808035906020019092919080359060200190929190505050611848565b005b34801561075957600080fd5b50610762611a7e565b604051808273ffffffffffffffffffffffffffffffffffffffff1673ffffffffffffffffffffffffffffffffffffffff16815260200191505060405180910390f35b3480156107b057600080fd5b506107b9611aa4565b6040518080602001828103825283818151815260200191508051906020019080838360005b838110156107f95780820151818401526020810190506107de565b50505050905090810190601f1680156108265780820380516001836020036101000a031916815260200191505b509250505060405180910390f35b34801561084057600080fd5b50610849611b42565b6040518082815260200191505060405180910390f35b610867611b48565b005b34801561087557600080fd5b506108df6004803603608081101561088c57600080fd5b81019080803590602001909291908035906020019092919080357bffffffffffffffffffffffffffffffffffffffffffffffffffffffff1916906020019092919080359060200190929190505050611e69565b005b3480156108ed57600080fd5b506108f6611f2d565b604051808215151515815260200191505060405180910390f35b34801561091c57600080fd5b50610925611f40565b604051808273ffffffffffffffffffffffffffffffffffffffff1673ffffffffffffffffffffffffffffffffffffffff16815260200191505060405180910390f35b6000610971612b51565b61098b61097d85611f66565b306347b8c7f660e01b611f91565b9050610a716040518060400160405280600281526020017f6964000000000000000000000000000000000000000000000000000000000000815250600c8054600181600116156101000203166002900480601f016020809104026020016040519081016040528092919081815260200182805460018160011615610100020316600290048015610a5c5780601f10610a3157610100808354040283529160200191610a5c565b820191906000526020600020905b815481529060010190602001808311610a3f57829003601f168201915b505050505083611fc29092919063ffffffff16565b610af06040518060400160405280600481526020017f66756e63000000000000000000000000000000000000000000000000000000008152506040518060400160405280600681526020017f6465706c6f79000000000000000000000000000000000000000000000000000081525083611fc29092919063ffffffff16565b610bb26040518060400160405280600781526020017f696e737572657200000000000000000000000000000000000000000000000000815250610ba2600660009054906101000a900473ffffffffffffffffffffffffffffffffffffffff16604051602001808273ffffffffffffffffffffffffffffffffffffffff1673ffffffffffffffffffffffffffffffffffffffff1660601b81526014019150506040516020818303038152906040526113df565b83611fc29092919063ffffffff16565b610c746040518060400160405280600681526020017f636c69656e740000000000000000000000000000000000000000000000000000815250610c64600760009054906101000a900473ffffffffffffffffffffffffffffffffffffffff16604051602001808273ffffffffffffffffffffffffffffffffffffffff1673ffffffffffffffffffffffffffffffffffffffff1660601b81526014019150506040516020818303038152906040526113df565b83611fc29092919063ffffffff16565b610ce76040518060400160405280600781526020017f6465706f73697400000000000000000000000000000000000000000000000000815250610cd7600954604051602001808281526020019150506040516020818303038152906040526113df565b83611fc29092919063ffffffff16565b610d5a6040518060400160405280600681526020017f7061796f75740000000000000000000000000000000000000000000000000000815250610d4a600854604051602001808281526020019150506040516020818303038152906040526113df565b83611fc29092919063ffffffff16565b610d65858285611ff5565b9150509392505050565b600d60159054906101000a900460c01b81565b600760009054906101000a900473ffffffffffffffffffffffffffffffffffffffff1681565b6000610db26122ad565b905090565b600e6020528060005260406000206000915090505481565b816005600082815260200190815260200160002060009054906101000a900473ffffffffffffffffffffffffffffffffffffffff1673ffffffffffffffffffffffffffffffffffffffff163373ffffffffffffffffffffffffffffffffffffffff1614610e87576040517f08c379a0000000000000000000000000000000000000000000000000000000008152600401808060200182810382526028815260200180612c166028913960400191505060405180910390fd5b6005600082815260200190815260200160002060006101000a81549073ffffffffffffffffffffffffffffffffffffffff0219169055807f7cc135e0cebb02c3480ae5d74d377283180a2601f8f644edf7987b009316c63a60405160405180910390a2600067ffffffffffffffff60c01b905060008360001c9050600081901c60c01b600d60156101000a81548167ffffffffffffffff021916908360c01c02179055508177ffffffffffffffffffffffffffffffffffffffffffffffff1916600d60159054906101000a900460c01b77ffffffffffffffffffffffffffffffffffffffffffffffff19161415610f9d576001600d60006101000a81548160ff021916908315150217905550610f9c846122d7565b5b5050505050565b600f8181548110610fb157fe5b9060005260206000209060049182820401919006600802915054906101000a900460c01b81565b6000600660009054906101000a900473ffffffffffffffffffffffffffffffffffffffff1673ffffffffffffffffffffffffffffffffffffffff163373ffffffffffffffffffffffffffffffffffffffff1614806110835750600760009054906101000a900473ffffffffffffffffffffffffffffffffffffffff1673ffffffffffffffffffffffffffffffffffffffff163373ffffffffffffffffffffffffffffffffffffffff16145b61108c57600080fd5b600854600e6000600660009054906101000a900473ffffffffffffffffffffffffffffffffffffffff1673ffffffffffffffffffffffffffffffffffffffff1673ffffffffffffffffffffffffffffffffffffffff16815260200190815260200160002054101580156111625750600954600e6000600760009054906101000a900473ffffffffffffffffffffffffffffffffffffffff1673ffffffffffffffffffffffffffffffffffffffff1673ffffffffffffffffffffffffffffffffffffffff1681526020019081526020016000205410155b61116b57600080fd5b611173612b51565b61118d61117f85611f66565b30639a40ae5c60e01b611f91565b90506112736040518060400160405280600281526020017f6964000000000000000000000000000000000000000000000000000000000000815250600c8054600181600116156101000203166002900480601f01602080910402602001604051908101604052809291908181526020018280546001816001161561010002031660029004801561125e5780601f106112335761010080835404028352916020019161125e565b820191906000526020600020905b81548152906001019060200180831161124157829003601f168201915b505050505083611fc29092919063ffffffff16565b6112f26040518060400160405280600481526020017f66756e63000000000000000000000000000000000000000000000000000000008152506040518060400160405280600781526020017f747269676765720000000000000000000000000000000000000000000000000081525083611fc29092919063ffffffff16565b6112fd858285611ff5565b9150509392505050565b600854600e6000600660009054906101000a900473ffffffffffffffffffffffffffffffffffffffff1673ffffffffffffffffffffffffffffffffffffffff1673ffffffffffffffffffffffffffffffffffffffff16815260200190815260200160002081905550600954600e6000600760009054906101000a900473ffffffffffffffffffffffffffffffffffffffff1673ffffffffffffffffffffffffffffffffffffffff1673ffffffffffffffffffffffffffffffffffffffff16815260200190815260200160002081905550565b60085481565b6060806040518060400160405280601081526020017f30313233343536373839616263646566000000000000000000000000000000008152509050606060028451026002016040519080825280601f01601f1916602001820160405280156114565781602001600182028038833980820191505090505b5090507f30000000000000000000000000000000000000000000000000000000000000008160008151811061148757fe5b60200101907effffffffffffffffffffffffffffffffffffffffffffffffffffffffffffff1916908160001a9053507f7800000000000000000000000000000000000000000000000000000000000000816001815181106114e457fe5b60200101907effffffffffffffffffffffffffffffffffffffffffffffffffffffffffffff1916908160001a90535060008090505b84518110156116435782600486838151811061153157fe5b602001015160f81c60f81b7effffffffffffffffffffffffffffffffffffffffffffffffffffffffffffff1916901c60f81c60ff168151811061157057fe5b602001015160f81c60f81b82600283026002018151811061158d57fe5b60200101907effffffffffffffffffffffffffffffffffffffffffffffffffffffffffffff1916908160001a90535082600f60f81b8683815181106115ce57fe5b602001015160f81c60f81b1660f81c60ff16815181106115ea57fe5b602001015160f81c60f81b82600283026003018151811061160757fe5b60200101907effffffffffffffffffffffffffffffffffffffffffffffffffffffffffffff1916908160001a9053508080600101915050611519565b508092505050919050565b60006116586122ad565b90508073ffffffffffffffffffffffffffffffffffffffff1663a9059cbb338373ffffffffffffffffffffffffffffffffffffffff166370a08231306040518263ffffffff1660e01b8152600401808273ffffffffffffffffffffffffffffffffffffffff1673ffffffffffffffffffffffffffffffffffffffff16815260200191505060206040518083038186803b1580156116f457600080fd5b505afa158015611708573d6000803e3d6000fd5b505050506040513d602081101561171e57600080fd5b81019080805190602001909291905050506040518363ffffffff1660e01b8152600401808373ffffffffffffffffffffffffffffffffffffffff1673ffffffffffffffffffffffffffffffffffffffff16815260200182815260200192505050602060405180830381600087803b15801561179857600080fd5b505af11580156117ac573d6000803e3d6000fd5b505050506040513d60208110156117c257600080fd5b8101908080519060200190929190505050611845576040517f08c379a00000000000000000000000000000000000000000000000000000000081526004018080602001828103825260128152602001807f556e61626c6520746f207472616e73666572000000000000000000000000000081525060200191505060405180910390fd5b50565b816005600082815260200190815260200160002060009054906101000a900473ffffffffffffffffffffffffffffffffffffffff1673ffffffffffffffffffffffffffffffffffffffff163373ffffffffffffffffffffffffffffffffffffffff1614611900576040517f08c379a0000000000000000000000000000000000000000000000000000000008152600401808060200182810382526028815260200180612c166028913960400191505060405180910390fd5b6005600082815260200190815260200160002060006101000a81549073ffffffffffffffffffffffffffffffffffffffff0219169055807f7cc135e0cebb02c3480ae5d74d377283180a2601f8f644edf7987b009316c63a60405160405180910390a260008260001c905080600d60016101000a81548173ffffffffffffffffffffffffffffffffffffffff021916908373ffffffffffffffffffffffffffffffffffffffff160217905550600660009054906101000a900473ffffffffffffffffffffffffffffffffffffffff1673ffffffffffffffffffffffffffffffffffffffff168173ffffffffffffffffffffffffffffffffffffffff161415611a0f576000600881905550611a6f565b600760009054906101000a900473ffffffffffffffffffffffffffffffffffffffff1673ffffffffffffffffffffffffffffffffffffffff168173ffffffffffffffffffffffffffffffffffffffff161415611a6e5760006008819055505b5b611a78836122d7565b50505050565b600d60019054906101000a900473ffffffffffffffffffffffffffffffffffffffff1681565b600c8054600181600116156101000203166002900480601f016020809104026020016040519081016040528092919081815260200182805460018160011615610100020316600290048015611b3a5780601f10611b0f57610100808354040283529160200191611b3a565b820191906000526020600020905b815481529060010190602001808311611b1d57829003601f168201915b505050505081565b60095481565b600660009054906101000a900473ffffffffffffffffffffffffffffffffffffffff1673ffffffffffffffffffffffffffffffffffffffff163373ffffffffffffffffffffffffffffffffffffffff161480611bf15750600760009054906101000a900473ffffffffffffffffffffffffffffffffffffffff1673ffffffffffffffffffffffffffffffffffffffff163373ffffffffffffffffffffffffffffffffffffffff16145b611bfa57600080fd5b600660009054906101000a900473ffffffffffffffffffffffffffffffffffffffff1673ffffffffffffffffffffffffffffffffffffffff163373ffffffffffffffffffffffffffffffffffffffff161415611d32576008543414611cc7576040517f08c379a00000000000000000000000000000000000000000000000000000000081526004018080602001828103825260198152602001807f496e636f727265637420696e7375726572206465706f7369740000000000000081525060200191505060405180910390fd5b34600e6000600660009054906101000a900473ffffffffffffffffffffffffffffffffffffffff1673ffffffffffffffffffffffffffffffffffffffff1673ffffffffffffffffffffffffffffffffffffffff16815260200190815260200160002081905550611e67565b600760009054906101000a900473ffffffffffffffffffffffffffffffffffffffff1673ffffffffffffffffffffffffffffffffffffffff163373ffffffffffffffffffffffffffffffffffffffff161415611e66576009543414611dff576040517f08c379a00000000000000000000000000000000000000000000000000000000081526004018080602001828103825260188152602001807f496e636f727265637420636c69656e74206465706f736974000000000000000081525060200191505060405180910390fd5b34600e6000600760009054906101000a900473ffffffffffffffffffffffffffffffffffffffff1673ffffffffffffffffffffffffffffffffffffffff1673ffffffffffffffffffffffffffffffffffffffff168152602001908152602001600020819055505b5b565b600660009054906101000a900473ffffffffffffffffffffffffffffffffffffffff1673ffffffffffffffffffffffffffffffffffffffff163373ffffffffffffffffffffffffffffffffffffffff161480611f125750600760009054906101000a900473ffffffffffffffffffffffffffffffffffffffff1673ffffffffffffffffffffffffffffffffffffffff163373ffffffffffffffffffffffffffffffffffffffff16145b611f1b57600080fd5b611f278484848461236d565b50505050565b600d60009054906101000a900460ff1681565b600660009054906101000a900473ffffffffffffffffffffffffffffffffffffffff1681565b60006060829050600081511415611f83576000801b915050611f8c565b60208301519150505b919050565b611f99612b51565b611fa1612b51565b611fb8858585846124d0909392919063ffffffff16565b9150509392505050565b611fd982846080015161258090919063ffffffff16565b611ff081846080015161258090919063ffffffff16565b505050565b600030600454604051602001808373ffffffffffffffffffffffffffffffffffffffff1673ffffffffffffffffffffffffffffffffffffffff1660601b815260140182815260200192505050604051602081830303815290604052805190602001209050600454836060018181525050836005600083815260200190815260200160002060006101000a81548173ffffffffffffffffffffffffffffffffffffffff021916908373ffffffffffffffffffffffffffffffffffffffff160217905550807fb5e6e01e79f91267dc17b4e6314d5d4d03593d2ceee0fbb452b750bd70ea5af960405160405180910390a2600260009054906101000a900473ffffffffffffffffffffffffffffffffffffffff1673ffffffffffffffffffffffffffffffffffffffff16634000aea0858461212d876125a5565b6040518463ffffffff1660e01b8152600401808473ffffffffffffffffffffffffffffffffffffffff1673ffffffffffffffffffffffffffffffffffffffff16815260200183815260200180602001828103825283818151815260200191508051906020019080838360005b838110156121b4578082015181840152602081019050612199565b50505050905090810190601f1680156121e15780820380516001836020036101000a031916815260200191505b50945050505050602060405180830381600087803b15801561220257600080fd5b505af1158015612216573d6000803e3d6000fd5b505050506040513d602081101561222c57600080fd5b8101908080519060200190929190505050612292576040517f08c379a0000000000000000000000000000000000000000000000000000000008152600401808060200182810382526023815260200180612bf36023913960400191505060405180910390fd5b60016004600082825401925050819055508090509392505050565b6000600260009054906101000a900473ffffffffffffffffffffffffffffffffffffffff16905090565b60008160001c905060c081901c60c01b600d60156101000a81548167ffffffffffffffff021916908360c01c0217905550600f600d60159054906101000a900460c01b908060018154018082558091505090600182039060005260206000209060049182820401919006600802909192909190916101000a81548167ffffffffffffffff021916908360c01c0217905550505050565b60006005600086815260200190815260200160002060009054906101000a900473ffffffffffffffffffffffffffffffffffffffff1690506005600086815260200190815260200160002060006101000a81549073ffffffffffffffffffffffffffffffffffffffff0219169055847fe1fe3afa0f7f761ff0a8b89086790efd5140d2907ebd5b7ff6bfcb5e075fd4c560405160405180910390a28073ffffffffffffffffffffffffffffffffffffffff16636ee4d553868686866040518563ffffffff1660e01b815260040180858152602001848152602001837bffffffffffffffffffffffffffffffffffffffffffffffffffffffff19167bffffffffffffffffffffffffffffffffffffffffffffffffffffffff19168152602001828152602001945050505050600060405180830381600087803b1580156124b157600080fd5b505af11580156124c5573d6000803e3d6000fd5b505050505050505050565b6124d8612b51565b6124e885608001516101006127ac565b508385600001818152505082856020019073ffffffffffffffffffffffffffffffffffffffff16908173ffffffffffffffffffffffffffffffffffffffff16815250508185604001907bffffffffffffffffffffffffffffffffffffffffffffffffffffffff191690817bffffffffffffffffffffffffffffffffffffffffffffffffffffffff191681525050849050949350505050565b61258d8260038351612800565b6125a0818361294590919063ffffffff16565b505050565b6060600360009054906101000a900473ffffffffffffffffffffffffffffffffffffffff1673ffffffffffffffffffffffffffffffffffffffff166340429946905060e01b60008084600001518560200151866040015187606001516001896080015160000151604051602401808973ffffffffffffffffffffffffffffffffffffffff1673ffffffffffffffffffffffffffffffffffffffff1681526020018881526020018781526020018673ffffffffffffffffffffffffffffffffffffffff1673ffffffffffffffffffffffffffffffffffffffff168152602001857bffffffffffffffffffffffffffffffffffffffffffffffffffffffff19167bffffffffffffffffffffffffffffffffffffffffffffffffffffffff1916815260200184815260200183815260200180602001828103825283818151815260200191508051906020019080838360005b8381101561270f5780820151818401526020810190506126f4565b50505050905090810190601f16801561273c5780820380516001836020036101000a031916815260200191505b509950505050505050505050604051602081830303815290604052907bffffffffffffffffffffffffffffffffffffffffffffffffffffffff19166020820180517bffffffffffffffffffffffffffffffffffffffffffffffffffffffff83818316178352505050509050919050565b6127b4612bbe565b6000602083816127c057fe5b06146127d957602082816127d057fe5b06602003820191505b81836020018181525050604051808452600081528281016020016040525082905092915050565b6017811161282d576128278160058460ff16901b60ff16178461296790919063ffffffff16565b50612940565b60ff811161286f57612852601860058460ff16901b178461296790919063ffffffff16565b50612869816001856129879092919063ffffffff16565b5061293f565b61ffff81116128b257612895601960058460ff16901b178461296790919063ffffffff16565b506128ac816002856129879092919063ffffffff16565b5061293e565b63ffffffff81116128f7576128da601a60058460ff16901b178461296790919063ffffffff16565b506128f1816004856129879092919063ffffffff16565b5061293d565b67ffffffffffffffff811161293c57612923601b60058460ff16901b178461296790919063ffffffff16565b5061293a816008856129879092919063ffffffff16565b505b5b5b5b5b505050565b61294d612bbe565b61295f838460000151518485516129a9565b905092915050565b61296f612bbe565b61297f8384600001515184612a62565b905092915050565b61298f612bbe565b6129a0848560000151518585612ab0565b90509392505050565b6129b1612bbe565b82518211156129bf57600080fd5b846020015182850111156129ea576129e98560026129e38860200151888701612b11565b02612b2d565b5b600080865180518760208301019350808887011115612a095787860182525b60208701925050505b60208410612a355780518252602082019150602081019050602084039350612a12565b60006001856020036101000a03905080198251168184511681811785525050879350505050949350505050565b612a6a612bbe565b83602001518310612a8757612a86846002866020015102612b2d565b5b8351805160208583010184815381861415612aa3576001820183525b5050508390509392505050565b612ab8612bbe565b84602001518483011115612ad657612ad585600286850102612b2d565b5b60006001836101000a0390508551838682010185831982511617815281518588011115612b035784870182525b505085915050949350505050565b600081831115612b2357829050612b27565b8190505b92915050565b606082600001519050612b4083836127ac565b50612b4b8382612945565b50505050565b6040518060c0016040528060008019168152602001600073ffffffffffffffffffffffffffffffffffffffff16815260200160007bffffffffffffffffffffffffffffffffffffffffffffffffffffffff1916815260200160008152602001612bb8612bd8565b81525090565b604051806040016040528060608152602001600081525090565b60405180604001604052806060815260200160008152509056fe756e61626c6520746f207472616e73666572416e6443616c6c20746f206f7261636c65536f75726365206d75737420626520746865206f7261636c65206f66207468652072657175657374a265627a7a723058204ebd0e57ee0c9dae6282b42362609536e4d6a301502b74c24e0dfb2a990be8f164736f6c634300050a0032",
  "source": "pragma solidity 0.5.10;\n\nimport \"@chainlink/contracts/src/v0.5/ChainlinkClient.sol\";\nimport \"../oz-25/contracts/ownership/Ownable.sol\";\n\ncontract AccordFundFactory {\n\n    mapping (string => address) public contracts;\n\n    address public linkAddress;\n\n    constructor(address _link) public {\n        linkAddress = _link;\n    }\n\n    function newAccordFundContract(\n        address payable _iAddr,\n        address payable _cAddr,\n        uint256 _payout,\n        uint256 _deposit,\n        string memory _start,\n        string memory _end,\n        string memory _id\n    ) public returns (address) {\n        AccordFund ac = new AccordFund(\n            linkAddress,\n            _iAddr,\n            _cAddr,\n            _payout,\n            _deposit,\n            _start,\n            _end,\n            _id\n        );\n        \n        contracts[_id] = address(ac);\n        \n        return address(ac);\n    }\n}\n\n/**\n * @title MyContract is an example contract which requests data from\n * the Chainlink network\n * @dev This contract is designed to work on multiple networks, including\n * local test networks\n */\ncontract AccordFund is ChainlinkClient {\n    address payable public iAddr;\n    address payable public cAddr;\n\n    uint256 public payout;\n    uint256 public deposit;\n\n    string start;\n    string end;\n\n    string public id;\n\n    bool public deployed;\n    \n    address public lastAddr;\n    \n    bytes8 public hash;\n\n    mapping(address => uint256) public balances;\n    bytes8[] public stateHash;\n\n    /**\n     * @notice Deploy the contract with a specified address for the LINK\n     * and Oracle contract addresses\n     * @dev Sets the storage for the specified addresses\n     * @param _link The address of the LINK token contract\n     */\n    constructor(\n        address _link,\n        address payable _iAddr,\n        address payable _cAddr,\n        uint256 _payout,\n        uint256 _deposit,\n        string memory _start,\n        string memory _end,\n        string memory _id\n    ) public {\n        if (_link == address(0)) {\n            setPublicChainlinkToken();\n        } else {\n            setChainlinkToken(_link);\n        }\n\n        iAddr = _iAddr;\n        cAddr = _cAddr;\n        payout = _payout;\n        deposit = _deposit;\n        start = _start;\n        end = _end;\n        id = _id;\n\n        deployed = false;\n        lastAddr = address(0);\n    }\n\n    modifier onlyLegalAddresses() {\n        require(msg.sender == iAddr || msg.sender == cAddr);\n        _;\n    }\n\n    modifier partyValueSubmitted() {\n        require(balances[iAddr] >= payout && balances[cAddr] >= deposit);\n        _;\n    }\n\n    // DEV FUNCTION TO ADD CORRECT FUNDS\n    function devAddCorrectFunds() public {\n        balances[iAddr] = payout;\n        balances[cAddr] = deposit;\n    }\n\n    /**\n     * @notice Returns the address of the LINK token\n     * @dev This is the public implementation for chainlinkTokenAddress, which is\n     * an internal method of the ChainlinkClient contract\n     */\n    function getChainlinkToken() public view returns (address) {\n        return chainlinkTokenAddress();\n    }\n\n    // Add deposit function for insurer, client\n    function depositFunds()\n    public\n    payable\n    onlyLegalAddresses\n    {\n        if (msg.sender == iAddr){\n            require(msg.value == payout, \"Incorrect insurer deposit\");\n            balances[iAddr] = msg.value;\n        } else if (msg.sender == cAddr){\n            require(msg.value == deposit, \"Incorrect client deposit\");\n            balances[cAddr] = msg.value;\n        }\n    }\n\n    function deployAccordContract(\n        address _oracle,\n        string memory _jobId,\n        uint256 _payment\n    )\n        public\n        //onlyOwner\n        returns (\n            //onlyLegalAddresses\n            //partyValueSubmitted\n            bytes32 requestId\n        )\n    {\n        Chainlink.Request memory req = buildChainlinkRequest(\n            stringToBytes32(_jobId),\n            address(this),\n            this.fulfillDeployment.selector\n        );\n\n        req.add(\"id\", id);\n        req.add(\"func\", \"deploy\");\n        req.add(\"insurer\", toString(abi.encodePacked(iAddr)));\n        req.add(\"client\", toString(abi.encodePacked(cAddr)));\n        req.add(\"deposit\", toString(abi.encodePacked(deposit)));\n        req.add(\"payout\",toString(abi.encodePacked(payout)));\n        requestId = sendChainlinkRequestTo(_oracle, req, _payment);\n    }\n    \n    \n\n    function fulfillDeployment(bytes32 _requestId, bytes32 _data)\n        public\n        recordChainlinkFulfillment(_requestId)\n    {\n        bytes8 pass = 0xffffffffffffffff;\n        \n        uint256 rr = uint256(_data);\n        hash = bytes8(uint64(rr >> 64*0));\n        \n        if (hash == pass){\n            deployed = true;\n            _writeToHashMap(_data);\n        }\n    }\n    \n    \n    function triggerAccordContract(\n    address _oracle,\n    string memory _jobId,\n    uint256 _payment\n    )\n    public\n    onlyLegalAddresses\n    partyValueSubmitted\n    returns (\n        bytes32 requestId\n    )\n    {\n        Chainlink.Request memory req = buildChainlinkRequest(\n            stringToBytes32(_jobId),\n            address(this),\n            this.fulfillTrigger.selector\n        );\n\n        req.add(\"id\", id);\n        req.add(\"func\", \"trigger\");\n        requestId = sendChainlinkRequestTo(_oracle, req, _payment);\n    }\n\n\n    function fulfillTrigger(bytes32 _requestId, bytes32 _payoutAddress)\n        public\n        recordChainlinkFulfillment(_requestId)\n    {\n        \n        address pa = address(uint160(uint256(_payoutAddress)));\n        lastAddr = pa;\n        \n        if (pa == iAddr){\n            //iAddr.transfer(payout);\n            payout = 0;\n        } else if (pa == cAddr){\n            //cAddr.transfer(payout);\n            payout = 0;\n        }\n        \n        _writeToHashMap(_payoutAddress);\n    }\n    \n    function _writeToHashMap(bytes32 _input)\n    internal\n    {\n        uint256 rr = uint256(_input);\n        hash = bytes8(uint64(rr >> 64*3));\n        stateHash.push(hash);\n    }\n\n    /**\n     * @notice Allows the owner to withdraw any LINK balance on the contract\n     */\n    function withdrawLink()\n        public\n       // onlyOwner /*onlyLegalAddresses*/\n    {\n        LinkTokenInterface link = LinkTokenInterface(chainlinkTokenAddress());\n        require(\n            link.transfer(msg.sender, link.balanceOf(address(this))),\n            \"Unable to transfer\"\n        );\n    }\n\n    /**\n     * @notice Call this method if no response is received within 5 minutes\n     * @param _requestId The ID that was generated for the request to cancel\n     * @param _payment The payment specified for the request to cancel\n     * @param _callbackFunctionId The bytes4 callback function ID specified for\n     * the request to cancel\n     * @param _expiration The expiration generated for the request to cancel\n     */\n    function cancelRequest(\n        bytes32 _requestId,\n        uint256 _payment,\n        bytes4 _callbackFunctionId,\n        uint256 _expiration\n    )\n        public\n        onlyLegalAddresses\n    {\n        cancelChainlinkRequest(\n            _requestId,\n            _payment,\n            _callbackFunctionId,\n            _expiration\n        );\n    }\n\n\n    function toString(bytes memory data) public pure returns (string memory) {\n        bytes memory alphabet = \"0123456789abcdef\";\n\n        bytes memory str = new bytes(2 + data.length * 2);\n        str[0] = \"0\";\n        str[1] = \"x\";\n        for (uint256 i = 0; i < data.length; i++) {\n            str[2 + i * 2] = alphabet[uint256(uint8(data[i] >> 4))];\n            str[3 + i * 2] = alphabet[uint256(uint8(data[i] & 0x0f))];\n        }\n        return string(str);\n    }\n\n    function stringToBytes32(string memory source)\n        private\n        pure\n        returns (bytes32 result)\n    {\n        bytes memory tempEmptyStringTest = bytes(source);\n        if (tempEmptyStringTest.length == 0) {\n            return 0x0;\n        }\n\n        assembly {\n            // solhint-disable-line no-inline-assembly\n            result := mload(add(source, 32))\n        }\n    }\n}\n",
  "sourcePath": "/home/hill/blockchain/accordion/truffle/contracts/AccordDeploy.sol",
  "compiler": {
    "name": "solc",
    "version": "0.5.10+commit.5a6ea5b1.Emscripten.clang"
  },
  "schemaVersion": "3.0.23",
  "updatedAt": "2020-09-27T19:24:28.182Z",
  "devdoc": {
    "details": "This contract is designed to work on multiple networks, including local test networks",
    "methods": {
      "cancelRequest(bytes32,uint256,bytes4,uint256)": {
        "params": {
          "_callbackFunctionId": "The bytes4 callback function ID specified for the request to cancel",
          "_expiration": "The expiration generated for the request to cancel",
          "_payment": "The payment specified for the request to cancel",
          "_requestId": "The ID that was generated for the request to cancel"
        }
      },
      "constructor": {
        "details": "Sets the storage for the specified addresses",
        "params": {
          "_link": "The address of the LINK token contract"
        }
      },
      "getChainlinkToken()": {
        "details": "This is the public implementation for chainlinkTokenAddress, which is an internal method of the ChainlinkClient contract"
      }
    },
    "title": "MyContract is an example contract which requests data from the Chainlink network"
  },
  "userdoc": {
    "methods": {
      "cancelRequest(bytes32,uint256,bytes4,uint256)": {
        "notice": "Call this method if no response is received within 5 minutes"
      },
      "constructor": "Deploy the contract with a specified address for the LINK and Oracle contract addresses",
      "getChainlinkToken()": {
        "notice": "Returns the address of the LINK token"
      },
      "withdrawLink()": {
        "notice": "Allows the owner to withdraw any LINK balance on the contract"
      }
    }
  }
}